:0900E200750800750934750A1255
:20012100AF8275B1FD75C9FF75B20275CA00D2B2D2B375C8FFEF7001228F055305037E0091
:20014100BD0005BE00028018BD0105BE00028017BD0205BE00028016BD031FBE001C801502
:2001610043B204C2B2801343B208C2B3800C43CA10C2CC800543CA20C2CDEF0303543FFF0D
:200181005307037E00BF0005BE00028018BF0105BE00028017BF0205BE00028016BF03204D
:2001A100BE001D801543B20453B1FB2243B20853B1F72243CA1053C9EF2243CA2053C9DF28
:2001C1002243BA8075B0FF90FE137401F0758200120121758900438EC0D2A9D2AB758CD4CE
:2001E100758ACD74FD55B84402F5B853B7FD74F755B84408F5B874F755B74408F5B7D28C7C
:20020100C28E438F4053B5EF74EF55B64410F5B6D2AF900000020233C0E0C007C0D075D093
:20022100000508E508540124FF92B1D0D0D007D0E032AE82AF83C28ED2B1EE4F700122C3E7
:20024100E49EFEE49FFF8F8D8E8BD28E22AE09E50A5401A2E0CE13CE13CEFFEE6209EF622E
:200261000AE50AC3137F006209EF620AAF09E46209EF620AE509450A70067509CD750AABDF
:040281008509822247
:04000000020089323F
:03000B0002028569
:0100130032BA
:03001B00020219C5
:0100230032AA
:01002B0032A2
:01003300329A
:01003B003292
:01004300328A
:01004B003282
:01005300327A
:01005B003272
:01006300326A
:01006B003262
:01007300325A
:01007B003252
:030083000203ACC9
:2000EB00750B01750C02750D02750E00750F00751000751100751200751301751400751538
:16010B0001751600751701751800751901751A00751B0002008602
:030086000204A8C9
:20028500C020C0E0C0F0C082C083C007C006C005C004C003C002C001C000C0D075D0007F34
:2002A5000074F6250B502B0514E51424FB5003751400E50B24F675F005A4FEE5142EFE33A9
:2002C50095E0FDEE245BF582ED3407F583E493FF805805147401B5140280157402B51402A6
:2002E50080257403B5140280287404B51437802BE50B60367402B50B067D0C7E0080047D7D
:20030500067E008D07802374FF250C501D7F0E801974FE250C50137F0B800F74FD250C50D5
:20032500097F078005751400AF0D8F82120121E51B600830B005E51B14F51BE513601B1521
:200345001974FFB51902151AE519451A703C75190AF51AE51314F5138030151574FFB51532
:20036500021516E515451670097515D0751607751101151774FFB517021518E517451870A7
:200385000975174D751801751001D0D0D000D001D002D003D004D005D006D007D083D08281
:2003A500D0F0D0E0D02032C0E0C007C006C0D075D000E51B7003751201751B0AAE8A7F0058
:2003C500EE6209EF620AD0D0D006D007D0E032AF82851C82851D83C007120233D0078F1335
:2003E500E51370FC900000020233E50F7034FFFEBE07005025EE90079193FDB50D178F05EB
:200405000DED3395E0FCED2491F582EC3407F583E493F50D220E8E0780D6900791E493F559
:200425000D227F00BF2200400122EF90076F93FEB50D0280158F06EE246FFCE43407FD8C2C
:20044500828D83E49360560E80ED8F05ED04FC3395E0FBEC246FFCEB3407FB8C027C80799A
:20046500008A828B838CF012073B60080ABA00010B0980EDC005C00112024EE582D001D0EF
:200485000589F084A9F00DE92DFD3395E0FCED246FF582EC3407F583E493F50D22EE04FFD6
:2004A5000204291201C2E50F703FF50CF50BF512E51260030205C4E51060F5751000E50DA2
:2004C5006008750D00750B008006750D0C750B01E50C24FB50067E007F008009AD0C0DED79
:2004E500FE3395E0FF8E0C80C7E50F24FC400302058A7F00750B0AE510600E751000050B88
:2005050074F2250B5003750B0AE512605C7512007F01C00712024EE582D0075403FD7E0070
:20052500BD0005BE00028010BD0105BE00028014BD0229BE00268018906C00C0071202331F
:20054500D00780B3903117C007120233D00780A790188BC007120233D007809B901200C013
:2005650007120233D0070204FCEF70030204FCE51B60030204FC7F00900000C00712023369
:20058500D0070204FC7F00E5127034E51060F87510007401B50B08750D09750B028006754C
:2005A5000D03750B01C3E50C950F5004050C80D7BF020050030F80CF750C007F0080C87562
:2005C5001200750C00750D02750E0312024EE582540104F50B751C33751D2B75820A1203C0
:2005E500D4751C00751D1B75820A1203D4751C99751D1575820A1203D4751200E511601E44
:2006050075110012024EAF82BF500050117402B50B067E017F0080047E027F008E0BE51001
:20062500600E751000E50E6004150E80031203EFE51260C87409B50D077401B50B02800A9B
:200645007403B50D4C7402B50B47750D00050C751C99751D1575820A1203D4E4F51CF51D3E
:2006650075820A1203D4751C66751D0E75820A1203D4E4F51CF51D75820A1203D4751C6622
:20068500751D0E75820A1203D4750D02750E038040E50C6002150C751C00751D4875821417
:2006A5001203D4E4F51CF51D7582141203D4751C00751D6C7582141203D4E4F51CF51D7552
:2006C50082141203D4751C00751DD87582141203D475120074FC250C4003020601751C9909
:2006E500751D1575820A1203D4E4F51CF51D75820A1203D4751C00751D127582141203D44A
:20070500E4F51CF51D75820A1203D4751C6D751D0F7582141203D4E4F51CF51D75820A1236
:1607250003D4751C80751D0D7582141203D4050F7512000204ABF7
:20075B0006040D0C00090203000001080000000E0B070000020D0408010009040100030DEA
:1E077B0008000409020D000D0302040001090208000803020100020D0308820409015A
:0600B800E478FFF6D8FD1C
:200096007900E94400601B7A00900799780175A000E493F2A308B8000205A0D9F4DAF27570
:0200B600A0FFA9
:2000BE007800E84400600A790175A000E4F309D8FC7800E84400600C7900900001E4F0A340
:0400DE00D8FCD9FA77
:0D008900758120120757E582600302008692
:1C073B0020F71430F6148883A88220F507E6A88375830022E280F7E49322E022CD
:040757007582002285
:00000001FF
