:0600E200750834750912D7
:20011800AF8275B1FD75C9FF75B20275CA00D2B2D2B375C8FFEF7001228F055305037E009A
:20013800BD0005BE00028018BD0105BE00028017BD0205BE00028016BD031FBE001C80150B
:2001580043B204C2B2801343B208C2B3800C43CA10C2CC800543CA20C2CDEF0303543FFF16
:200178005307037E00BF0005BE00028018BF0105BE00028017BF0205BE00028016BF032056
:20019800BE001D801543B20453B1FB2243B20853B1F72243CA1053C9EF2243CA2053C9DF31
:2001B8002275B0FF90FE137401F0758200120118758900438EC0D2A9D2AB758CD4758ACD91
:2001D80074FD55B84402F5B853B7FD74F755B84408F5B874F755B74408F5B7D28CC28E43BE
:2001F8008F4053B5EF74EF55B64410F5B6D2AF90000002020DAE82AF83C28ED2B1EE4F70B0
:200218000122C3E49EFEE49FFF8F8D8E8BD28E22AE08E5095401A2E0CE13CE13CEFFEE62CD
:2002380008EF6209E509C3137F006208EF6209AF08E46208EF6209E508450970067508CDE3
:070258007509AB8508822245
:04000000020089323F
:03000B0002025F8F
:0100130032BA
:03001B0002034B92
:0100230032AA
:01002B0032A2
:01003300329A
:01003B003292
:01004300328A
:01004B003282
:01005300327A
:01005B003272
:01006300326A
:01006B003262
:01007300325A
:01007B003252
:0300830002036510
:2000E800750A01750B02750C02750D00750E00750F007510007511E875120375130175145B
:100108000075150175160075170075180002008630
:0300860002038DE5
:20025F00C020C0E0C0F0C082C083C007C006C005C004C003C002C001C000C0D075D0007F5A
:20027F000005107401B5100280157402B5100280257403B5100280287404B51037802BE5AD
:20029F000A60367402B50A067D0C7E0080047D067E008D07802374FF250B501D7F0E80196B
:2002BF0074FE250B50137F0B800F74FD250B50097F078005751000AF0C8F8212011815115A
:2002DF0074FFB511021512E511451270067511E8751203151374FFB513021514E513451403
:2002FF0070097513D0751407750E01151574FFB515021516E5154516700975154D75160135
:20031F00750D01E517600830B005E51714F517D0D0D000D001D002D003D004D005D006D0A1
:20033F0007D083D082D0F0D0E0D02032C0E0C007C0D075D0000518E518540124FF92B1D07F
:20035F00D0D007D0E032C0E0C007C006C0D075D000E5177003750F0175170AAE8A7F00EEC4
:20037F006208EF6209D0D0D006D007D0E0321201B9750B02750A00750F00E50F7019E50DAB
:20039F0060F8750D00E50C60067E007F0080047E027F008E0C80E3750F00750B00750C0209
:2003BF00120228E5825401FF04F50AE50E601E750E00120228AF82BF500050117402B50A1E
:2003DF00067E017F0080047E027F008E0AE50D700302047A750D007F00BF220040030204CF
:2003FF007AEF9004D493FEB50C0280158F06EE24D4FCE43404FD8C828D83E49360570E80BA
:20041F00ED8F05ED04FC3395E0FBEC24D4FCEB3404FB8C027C8079008A828B838CF01204FF
:20043F00B460080ABA00010B0980EDC005C001120228E582D001D00589F084A9F00DE92DB3
:20045F00FD3395E0FCED24D4F582EC3404F583E493F50C8006EE04FF0203F8E50F7003028F
:20047F0003CA750F007409B50C077401B50A02800A7403B50C137402B50A0E74FD250B5088
:15049F00030203CA050B0203CAE50B70030203CA150B0203CA76
:2004D400020D0408010009040100030D08000409020D000D03020400010902080008030273
:0204F400010005
:0600B800E478FFF6D8FD1C
:200096007900E94400601B7A009004F6780175A000E493F2A308B8000205A0D9F4DAF27516
:0200B600A0FFA9
:2000BE007800E84400600A790175A000E4F309D8FC7800E84400600C7900900001E4F0A340
:0400DE00D8FCD9FA77
:0D0089007581201204D0E58260030200861C
:1C04B40020F71430F6148883A88220F507E6A88375830022E280F7E49322E02257
:0404D000758200220F
:00000001FF
