:0900E200750800750934750A1255
:20012100AF8275B1FD75C9FF75B20275CA00D2B2D2B375C8FFEF7001228F055305037E0091
:20014100BD0005BE00028018BD0105BE00028017BD0205BE00028016BD031FBE001C801502
:2001610043B204C2B2801343B208C2B3800C43CA10C2CC800543CA20C2CDEF0303543FFF0D
:200181005307037E00BF0005BE00028018BF0105BE00028017BF0205BE00028016BF03204D
:2001A100BE001D801543B20453B1FB2243B20853B1F72243CA1053C9EF2243CA2053C9DF28
:2001C1002243BA8075B0FD90FE137401F0758200120121758900438EC0D2A9D2AB758CD4D0
:2001E100758ACD74FD55B84402F5B853B7FD74F755B84408F5B874F755B74408F5B7D28C7C
:20020100C28E438F4053B5EF74EF55B64410F5B6D2AF900000020233C0E0C007C0D075D093
:20022100000508E508540124FF92B1D0D0D007D0E032AE82AF83C28EC2B1EE4F700122C3F7
:20024100E49EFEE49FFF8F8D8E8BD28E22AE09E50A5401A2E0CE13CE13CEFFEE6209EF622E
:200261000AE50AC3137F006209EF620AAF09E46209EF620AE509450A70067509CD750AABDF
:040281008509822247
:04000000020089323F
:03000B0002028569
:0100130032BA
:03001B00020219C5
:0100230032AA
:01002B0032A2
:01003300329A
:01003B003292
:01004300328A
:01004B003282
:01005300327A
:01005B003272
:01006300326A
:01006B003262
:01007300325A
:01007B003252
:03008300020399DC
:2000EB00750B01750C02750D02750E00750F01751000751100751200751301751400751537
:16010B0001751600751701751800751901751A00751B0002008602
:030086000203DC96
:20028500C020C0E0C0F0C082C083C007C006C005C004C003C002C001C000C0D075D0007F34
:2002A5000005147401B5140280157402B5140280257403B5140280287404B51437802BE573
:2002C5000B60367402B50B067D0C7E0080047D067E008D07802374FF250C501D7F0E801942
:2002E50074FE250C50137F0B800F74FD250C50097F078005751400AF0D8F82120121E51B4A
:20030500600830B005E51B14F51BE513601B151974FFB51902151AE519451A705A75190A95
:20032500F51AE51314F513804E151574FFB515021516E515451670097515D07516077511F3
:2003450001151774FFB517021518E517451870277402B50F02800F7403B50F0280107517E9
:200365004D751801800E7517C87518008006751764751800751001D0D0D000D001D002D0C2
:2003850003D004D005D006D007D083D082D0F0D0E0D02032C0E0C007C006C0D075D000E5E1
:2003A5001B7003751201751B0AAE8A7F00EE6209EF620AD0D0D006D007D0E032AF82851C1C
:2003C50082851D83C007120233D0078F13E51370FC9000000202331201C27401B50F288504
:2003E5000F0C750B00751200E512705DE51060F8751000E50D6008750D00750B0080E97506
:200405000D0C750B0180E17F00E512703C7401B50B08750D09750B028006750D03750B01E4
:20042500C3E50C950F5004050C800DBF020050030F8005750C007F00E4F51CF51D75820ABD
:20044500C0071203C1D00780C0751200750C00750D02750E0512024EE582540104F50B7538
:200465001C33751D2B75820A1203C1751C00751D1B75820A1203C1751C99751D1575820AAD
:200485001203C1751200E511601E75110012024EAF82BF500050117402B50B067E017F00C3
:2004A50080047E027F008E0BE51070030205447510007F00BF22004003020544E50E60059D
:2004C500150E020544EF90067393FEB50D0280158F06EE2473FCE43406FD8C828D83E49301
:2004E50060570E80ED8F05ED04FC3395E0FBEC2473FCEB3406FB8C027C8079008A828B83E5
:200505008CF012065360080ABA00010B0980EDC005C00112024EE582D001D00589F084A9A6
:20052500F00DE92DFD3395E0FCED2473F582EC3406F583E493F50D8006EE04FF0204B9E5D5
:2005450012700302048B7409B50D077401B50B02800A7403B50D4C7402B50B47750D0005F0
:200565000C751C99751D1575820A1203C1E4F51CF51D75820A1203C1751C66751D0E758256
:200585000A1203C1E4F51CF51D75820A1203C1751C66751D0E75820A1203C1750D02750E23
:2005A500038040E50C6002150C751C00751D487582141203C1E4F51CF51D7582141203C1CB
:2005C500751C00751D6C7582141203C1E4F51CF51D7582141203C1751C00751DD8758214B8
:2005E5001203C175120074FC250C400302048B751C99751D1575820A1203C1E4F51CF51D75
:2006050075820A1203C1751C00751D127582141203C1E4F51CF51D75820A1203C1751C6D0C
:20062500751D0F7582141203C1E4F51CF51D75820A1203C1751C80751D0D7582141203C1C4
:0E06450074FD250F4002050F7512000203DF41
:20067300020D0408010009040100030D08000409020D000D030204000109020800080302D2
:02069300010064
:0600B800E478FFF6D8FD1C
:200096007900E94400601B7A00900695780175A000E493F2A308B8000205A0D9F4DAF27575
:0200B600A0FFA9
:2000BE007800E84400600A790175A000E4F309D8FC7800E84400600C7900900001E4F0A340
:0400DE00D8FCD9FA77
:0D00890075812012066FE58260030200867B
:1C06530020F71430F6148883A88220F507E6A88375830022E280F7E49322E022B6
:04066F00758200226E
:00000001FF
