:03000000020006F5
:03005F0002000399
:03000300020112E5
:20006200AF8275B1FD75C9FF75B20275CA00D2B2D2B375C8FFEF7001228F055305037E0051
:20008200BD0005BE00028018BD0105BE00028017BD0205BE00028016BD031FBE001C8015C2
:2000A20043B204C2B2801343B208C2B3800C43CA10C2CC800543CA20C2CDEF0303543FFFCD
:2000C2005307037E00BF0005BE00028018BF0105BE00028017BF0205BE00028016BF03200D
:2000E200BE001D801543B20453B1FB2243B20853B1F72243CA1053C9EF2243CA2053C9DFE8
:200102002275B0FD90FE137401F07582000200621201037F00BF0C005034EF90026E93F5DD
:2001220082C007120062D00720B016D2B1900001C0071201B3C2B19000011201B3D0078081
:16014200E79000C8C0071201B3D0070F80C79003E81201B380BD30
:0C026E0001020304060708090B0C0D0E2A
:06003500E478FFF6D8FD9F
:200013007900E94400601B7A0090027E780175A000E493F2A308B8000205A0D9F4DAF27513
:02003300A0FF2C
:20003B007800E84400600A790175A000E4F309D8FC7800E84400600C7900900001E4F0A3C3
:04005B00D8FCD9FAFA
:200158007E007F0075BA8090FE01E0601A90FE01E4F07C007D007B051CBCFF011DEC4D7078
:20017800F7DBF58C068D0775BA00759D0075A600759F00759E001EBEFF011FEE4F70F72236
:20019800AF82759D008FA685089F759E007E007F001EBEFF011FEE4F70F722AE82AF8390E0
:2001B800027BE493FC740193FD1CBCFF011DEC4D70F71EBEFF011FEE4F70E422AE82AF838D
:2001D80090027DE493FDDDFE1EBEFF011FEE4F70EF2290027AE493FF8F08750900750A00DA
:0D01F800750B0090C00075F0A8E402020530
:04027A0001CC0401AE
:0D00060075810B12026AE58260030200039F
:20020500FB7A20E4FCFDFEFFE5822582F582E58333F583E5F033F5F0EB33FB4017DAE98032
:2002250042E5822582F582E58333F583E5F033F5F0EB33FBEC33FCED33FDEE33FEEF33FF61
:20024500EC9508ED9509EE950AEF950B4013EC9508FCED9509FDEE950AFEEF950BFF43822B
:0502650001DABEEB22EE
:04026A007582002277
:00000001FF
