:0900E200750800750934750A1255
:20011E00AF8275B1FD75C9FF75B20275CA00D2B2D2B375C8FFEF7001228F055305037E0094
:20013E00BD0005BE00028018BD0105BE00028017BD0205BE00028016BD031FBE001C801505
:20015E0043B204C2B2801343B208C2B3800C43CA10C2CC800543CA20C2CDEF0303543FFF10
:20017E005307037E00BF0005BE00028018BF0105BE00028017BF0205BE00028016BF032050
:20019E00BE001D801543B20453B1FB2243B20853B1F72243CA1053C9EF2243CA2053C9DF2B
:2001BE002275B0FD90FE137401F075820012011E758900438EC0D2A9D2AB758CD4758ACD87
:2001DE0074FD55B84402F5B853B7FD74F755B84408F5B874F755B74408F5B7D28CC28E43B8
:2001FE008F4053B5EF74EF55B64410F5B6D2AF90000002022DC0E0C007C0D075D000050823
:20021E00E508540124FF92B1D0D0D007D0E032AE82AF83C28EC2B1EE4F700122C3E49EFE87
:20023E00E49FFF8F8D8E8BD28E22AE09E50A5401A2E0CE13CE13CEFFEE6209EF620AE50AB8
:20025E00C3137F006209EF620AAF09E46209EF620AE509450A70067509CD750AAB850982CB
:01027E00225D
:04000000020089323F
:03000B0002027F6F
:0100130032BA
:03001B00020213CB
:0100230032AA
:01002B0032A2
:01003300329A
:01003B003292
:01004300328A
:01004B003282
:01005300327A
:01005B003272
:01006300326A
:01006B003262
:01007300325A
:01007B003252
:0300830002037500
:2000EB00750B01750C02750D02750E00750F00751000751100751201751300751401751537
:13010B0000751601751700751801751900751A0002008696
:030086000203B8BA
:20027F00C021C0E0C0F0C082C083C007C006C005C004C003C002C001C000C0D075D0007F39
:20029F000005137401B5130280157402B5130280257403B5130280287404B51337802BE57E
:2002BF000B60367402B50B067D0C7E0080047D067E008D07802374FF250C501D7F0E801948
:2002DF0074FE250C50137F0B800F74FD250C50097F078005751300AF0D8F8212011EE51A55
:2002FF00600830B005E51A14F51AE512601B151874FFB518021519E5184519703C75180AC3
:20031F00F519E51214F5128030151474FFB514021515E514451570097514D0751507751022
:20033F0001151674FFB516021517E5164517700975164D751701750F01D0D0D000D001D03B
:20035F0002D003D004D005D006D007D083D082D0F0D0E0D02132C0E0C007C006C0D075D019
:20037F0000E51A7003751101751A0AAE8A7F00EE6209EF620AD0D0D006D007D0E032AF8201
:20039F00851B82851C83C00712022DD0078F12E51270FC90000002022D1201BF750C02758A
:2003BF000B00751100E511701BE50F60F8750F00E50D6008750D00750B0080E9750D0C7574
:2003DF000B0180E1751100750C00750D02750E05120248E582540104F50B751B33751C2BE3
:2003FF0075820A12039D751B00751C1B75820A12039D751B99751C1575820A12039D751134
:20041F0000E510601E751000120248AF82BF500050117402B50B067E017F0080047E027F0B
:20043F00008E0BE50F70030204D9750F007F00BF220040030204D9E50E6005150E0204D95E
:20045F00EF90063E93FEB50D0280158F06EE243EFCE43406FD8C828D83E49360570E80ED0D
:20047F008F05ED04FC3395E0FBEC243EFCEB3406FB8C027C8079008A828B838CF012061E00
:20049F0060080ABA00010B0980EDC005C001120248E582D001D00589F084A9F00DE92DFDEA
:2004BF003395E0FCED243EF582EC3406F583E493F50D8006EE04FF02044EE5117003020462
:2004DF00207409B50D077401B50B02800A7403B50D4C7402B50B47750D00050C751B9975A3
:2004FF001C1575820A12039DE4F51BF51C75820A12039D751B66751C0E75820A12039DE415
:20051F00F51BF51C75820A12039D751B66751C0E75820A12039D750D02750E038040E50CE5
:20053F006002150C751B00751C4875821412039DE4F51BF51C75821412039D751B00751C10
:20055F006C75821412039DE4F51BF51C75821412039D751B00751CD875821412039D751155
:20057F000074FC250C4003020420751B99751C1575820A12039DE4F51BF51C75820A1203B5
:20059F009D751B00751C1275821412039DE4F51BF51C75820A12039D751B6D751C0F758263
:2005BF001412039DE4F51BF51C75820A12039D751B80751C0D75821412039DE511703A741F
:2005DF0001B50B08750D09750B028006750D03750B01C3E50C9405920040067E007F0080F8
:1F05FF0009AD0C0DEDFE3395E0FF8E0CE4F51BF51C75820A12039D80C27511000203BBA2
:20063E00020D0408010009040100030D08000409020D000D03020400010902080008030207
:02065E00010099
:0600B800E478FFF6D8FD1C
:200096007900E94400601B7A00900660780175A000E493F2A308B8000205A0D9F4DAF275AA
:0200B600A0FFA9
:2000BE007800E84400600A790175A000E4F309D8FC7800E84400600C7900900001E4F0A340
:0400DE00D8FCD9FA77
:0D00890075812112063AE5826003020086AF
:1C061E0020F71430F6148883A88220F507E6A88375830022E280F7E49322E022EB
:04063A0075820022A3
:00000001FF
