:0900E200750800750934750A1255
:20012100AF8275B1FD75C9FF75B20275CA00D2B2D2B375C8FFEF7001228F055305037E0091
:20014100BD0005BE00028018BD0105BE00028017BD0205BE00028016BD031FBE001C801502
:2001610043B204C2B2801343B208C2B3800C43CA10C2CC800543CA20C2CDEF0303543FFF0D
:200181005307037E00BF0005BE00028018BF0105BE00028017BF0205BE00028016BF03204D
:2001A100BE001D801543B20453B1FB2243B20853B1F72243CA1053C9EF2243CA2053C9DF28
:2001C1002243BA8075B0FF90FE137401F0758200120121758900438EC0D2A9D2AB758CD4CE
:2001E100758ACD74FD55B84402F5B853B7FD74F755B84408F5B874F755B74408F5B7D28C7C
:20020100C28E438F4053B5EF74EF55B64410F5B6D2AF900000020233C0E0C007C0D075D093
:20022100000508E508540124FF92B1D0D0D007D0E032AE82AF83C28ED2B1EE4F700122C3E7
:20024100E49EFEE49FFF8F8D8E8BD28E22AE09E50A5401A2E0CE13CE13CEFFEE6209EF622E
:200261000AE50AC3137F006209EF620AAF09E46209EF620AE509450A70067509CD750AABDF
:040281008509822247
:04000000020089323F
:03000B0002028569
:0100130032BA
:03001B00020219C5
:0100230032AA
:01002B0032A2
:01003300329A
:01003B003292
:01004300328A
:01004B003282
:01005300327A
:01005B003272
:01006300326A
:01006B003262
:01007300325A
:01007B003252
:030083000203A0D5
:2000EB00750B01750C02750D02750E00750F00751000751100751200751301751400751538
:16010B0001751600751701751800751901751A00751B0002008602
:0300860002049CD5
:20028500C020C0E0C0F0C082C083C007C006C005C004C003C002C001C000C0D075D0007F34
:2002A5000005147401B5140280157402B5140280257403B5140280287404B51437802BE573
:2002C5000B60367402B50B067D0C7E0080047D067E008D07802374FF250C501D7F0E801942
:2002E50074FE250C50137F0B800F74FD250C50097F078005751400AF0D8F82120121E51B4A
:20030500600830B005E51B14F51BE513601B151974FFB51902151AE519451A706175190A8E
:20032500F51AE51314F5138055151574FFB515021516E515451670097515D07516077511EC
:2003450001151774FFB517021518E5174518702E7401B50F02800E7402B50F02800F7403FB
:20036500B50F02801075174D751801800E7517FA751800800675178E751800751001D0D0C7
:20038500D000D001D002D003D004D005D006D007D083D082D0F0D0E0D02032C0E0C007C05E
:2003A50006C0D075D000E51B7003751201751B0AAE8A7F00EE6209EF620AD0D0D006D00710
:2003C500D0E032AF82851C82851D83C007120233D0078F13E51370FC900000020233E50F17
:2003E5007034FFFEBE07005025EE9006D893FDB50D178F050DED3395E0FCED24D8F582ECDA
:200405003406F583E493F50D220E8E0780D69006D8E493F50D227F00BF2200400122EF9046
:2004250006B693FEB50D0280158F06EE24B6FCE43406FD8C828D83E49360560E80ED8F0543
:20044500ED04FC3395E0FBEC24B6FCEB3406FB8C027C8079008A828B838CF0120696600876
:200465000ABA00010B0980EDC005C00112024EE582D001D00589F084A9F00DE92DFD3395BE
:20048500E0FCED24B6F582EC3406F583E493F50D22EE04FF02041D1201C2E50F703CF50C7A
:2004A500F50BF512E512706CE51060F8751000E50D6008750D00750B008006750D0C750B9B
:2004C50001E50C24FB50067E007F008009AD0C0DEDFE3395E0FF8E0C80CA7F00E5127034D4
:2004E500E51060F87510007401B50B08750D09750B028006750D03750B01C3E50C950F50A7
:2005050004050C80D7BF020050030F80CF750C007F0080C8751200750C00750D02750E039E
:2005250012024EE582540104F50B751C33751D2B75820A1203C8751C00751D1B75820A12E4
:2005450003C8751C99751D1575820A1203C8751200E511601E75110012024EAF82BF5000F9
:2005650050117402B50B067E017F0080047E027F008E0BE510600E751000E50E6004150E5D
:2005850080031203E3E51260C87409B50D077401B50B02800A7403B50D4C7402B50B47753E
:2005A5000D00050C751C99751D1575820A1203C8E4F51CF51D75820A1203C8751C66751DFB
:2005C5000E75820A1203C8E4F51CF51D75820A1203C8751C66751D0E75820A1203C8750D4E
:2005E50002750E038040E50C6002150C751C00751D487582141203C8E4F51CF51D758214D5
:200605001203C8751C00751D6C7582141203C8E4F51CF51D7582141203C8751C00751DD897
:200625007582141203C875120074FC250C4003020556751C99751D1575820A1203C8E4F57D
:200645001CF51D75820A1203C8751C00751D127582141203C8E4F51CF51D75820A1203C887
:20066500751C6D751D0F7582141203C8E4F51CF51D75820A1203C8751C80751D0D7582144E
:110685001203C874FD250F4002050F75120002049F60
:2006B600020D0408010009040100030D08000409020D000D0302040001090208000803028F
:0A06D6000100020D0308820409016F
:0600B800E478FFF6D8FD1C
:200096007900E94400601B7A009006E0780175A000E493F2A308B8000205A0D9F4DAF2752A
:0200B600A0FFA9
:2000BE007800E84400600A790175A000E4F309D8FC7800E84400600C7900900001E4F0A340
:0400DE00D8FCD9FA77
:0D0089007581201206B2E582600302008638
:1C06960020F71430F6148883A88220F507E6A88375830022E280F7E49322E02273
:0406B200758200222B
:00000001FF
